:100000000C9434000C9451000C9451000C94510049
:100010000C9451000C9451000C9451000C9451001C
:100020000C9451000C9451000C9451000C94D40089
:100030000C9451000C9451000C9451000C945100FC
:100040000C9451000C9451000C9451000C945100EC
:100050000C9451000C9451000C9451000C945100DC
:100060000C9451000C94510011241FBECFEFD8E026
:10007000DEBFCDBF11E0A0E0B1E0E0EFF9E002C0EB
:1000800005900D92A430B107D9F721E0A4E0B1E0CA
:1000900001C01D92A535B207E1F70E94A4020C949D
:1000A000F6040C9400000F931F93CF93DF938C0101
:1000B00080910F0190911001892B81F0EFE0F1E028
:1000C00021E030E0822FE901A781B0852F5F3F4F0B
:1000D0003796AB2BB9F78A3021F415C0C0E0D0E0D9
:1000E00080E0FE01EE0FFF1FEE0FFF1FEE0FFF1F60
:1000F000EC1BFD0BE15FFE4F118300837383628372
:10010000558344831682DF91CF911F910F910895FB
:1001100027E0829FC0011124FC01E15FFE4F1182A4
:1001200010821382128215821482168280E0089552
:10013000EF92FF921F93CF93DF93CFE0D1E010E0D7
:100140008E81882379F0E881F981309759F00995FB
:100150008E8181508E838C819D81892B19F4812F12
:100160000E9488001F5F27961A3051F7DF91CF91C8
:100170001F91FF90EF900895CF93C0E08C2F0E94C5
:100180008800CF5FCA30D1F781E792E09093890071
:10019000809388008CE08093810082E080936F00E0
:1001A000CF910895789408951F920F920FB60F92F1
:1001B00011242F933F938F939F93AF93BF93EF930C
:1001C000FF93EFE0F1E025E531E080819181892B1B
:1001D00091F082819381009759F486818F5F8683A5
:1001E00084819581009739F001979383828303C0BE
:1001F0000197938382833796E217F30731F7FF91D4
:10020000EF91BF91AF919F918F913F912F910F905F
:100210000FBE0F901F9018958FEF8AB984B908957B
:100220001092C50083E38093C4001092C00088E15F
:100230008093C10086E08093C2000895EAE7F0E071
:10024000808187608083ACE7B0E08C9180648C9380
:100250008081806880830895ECE7F0E090EF9083E0
:100260009081892B8083EAE7F0E08081806480833D
:10027000808186FDFDCF8091790090E0089581E036
:1002800090E00E942C01EFE3FCE93197F1F700C008
:100290000000BC01990F880B990B0E94E70320E036
:1002A00030E04FE753E40E94440320E030E040EAAE
:1002B00050E40E94730460930801709309018093D5
:1002C0000A0190930B0160910801709109018091DE
:1002D0000A0190910B0120E030E040E05FE30E94D2
:1002E000D70220E030E048EC52E40E9473046093AF
:1002F00004017093050180930601909307016091BA
:1003000004017091050180910601909107010E94FE
:10031000B60360930D01089561E080E090E00E94D3
:10032000E8046091030181E090E00E94E80460919C
:10033000020182E090E00E94E8046091010183E004
:1003400090E00E94E80460910E0184E090E00E9439
:10035000E8046091000185E090E00E94E80460916B
:100360000D0186E090E00E94E804089581E090E0AD
:100370000E94E0048093030182E090E00E94E00488
:100380008093020183E090E00E94E00480930101E9
:1003900084E090E00E94E00480930E0185E090E00C
:1003A0000E94E0048093000186E090E00E94E00457
:1003B00080930D0108955B9A08955B9808955A9A69
:1003C00008955A9808955C9A08955C98089581E07C
:1003D00080930C018BB1843011F40E94E1010E94E2
:1003E000DB013CC00E94E3012FEF89E698E1215038
:1003F00080409040E1F700C000000E94E5012FEF2F
:1004000089E698E1215080409040E1F700C000006B
:1004100080910E012091020190E00A9730E082174E
:1004200093078CF490910E012091020180910E01AE
:10043000921B891B80930E0160910E0184E090E075
:100440000E94E8040BC080910E018A5080930E0137
:1004500060910E0184E090E00E94E80490910E010A
:1004600080910201891708F4BDCF10920C01089504
:1004700081E080930C018BB1883011F40E94DD0182
:100480000E94DF013CC00E94E3012FEF89E698E162
:10049000215080409040E1F700C000000E94E5013B
:1004A0002FEF89E698E1215080409040E1F700C0AD
:1004B000000080910E012091010190E00A9630E049
:1004C000281739078CF42091010190910E01809139
:1004D0000E01820F891B80930E0160910E0184E052
:1004E00090E00E94E8040BC080910E01865F80932B
:1004F0000E0160910E0184E090E00E94E80490916A
:100500000E0180910101981708F4BDCF10920C01E3
:1005100008959091030120910C0181E0913009F040
:1005200080E0882381F081E0211180E0882359F068
:1005300090910D0180910001891718F40E943802F2
:1005400008950E94E701089580E090E00E94E00491
:10055000813019F00E948C0102C00E94B6010E94F5
:100560000C010E9410010E941E0110920C0181E0FA
:100570008093030189E1809300018AE080930D015B
:100580000E94BC0048EE53E068EE73E08FE391E018
:100590000E94530048EB5BE064EF71E089E892E071
:1005A0000E9453000E94D2000E949800FDCF505834
:1005B000BB27AA270E94EF020C9439040E942B0447
:1005C00038F00E94320420F039F49F3F19F426F4E9
:1005D0000C9428040EF4E095E7FB0C942204E92F18
:1005E0000E944A0458F3BA176207730784079507F5
:1005F00020F079F4A6F50C946C040EF4E0950B2E23
:10060000BA2FA02D0B01B90190010C01CA01A00164
:100610001124FF27591B99F0593F50F4503E68F1BF
:100620001A16F040A22F232F342F4427585FF3CF00
:10063000469537952795A795F0405395C9F77EF4D1
:100640001F16BA0B620B730B840BBAF09150A1F01A
:10065000FF0FBB1F661F771F881FC2F70EC0BA0FA0
:10066000621F731F841F48F4879577956795B79528
:10067000F7959E3F08F0B0CF9395880F08F0992723
:10068000EE0F9795879508950E9458030C943904AE
:100690000E94320458F00E942B0440F029F45F3F7E
:1006A00029F00C94220451110C946D040C9428042C
:1006B0000E944A0468F39923B1F3552391F3951BE3
:1006C000550BBB27AA2762177307840738F09F5F73
:1006D0005F4F220F331F441FAA1FA9F335D00E2EE0
:1006E0003AF0E0E832D091505040E695001CCAF74D
:1006F0002BD0FE2F29D0660F771F881FBB1F261710
:1007000037074807AB07B0E809F0BB0B802DBF01E6
:10071000FF2793585F4F3AF09E3F510578F00C94B5
:1007200022040C946D045F3FE4F3983ED4F3869565
:1007300077956795B795F7959F5FC9F7880F911DD6
:100740009695879597F90895E1E0660F771F881FC2
:10075000BB1F621773078407BA0720F0621B730B75
:10076000840BBA0BEE1F88F7E09508950E9452049F
:1007700088F09F5798F0B92F9927B751B0F0E1F062
:10078000660F771F881F991F1AF0BA95C9F714C012
:10079000B13091F00E946C04B1E008950C946C04A7
:1007A000672F782F8827B85F39F0B93FCCF386954B
:1007B00077956795B395D9F73EF4909580957095A8
:1007C00061957F4F8F4F9F4F0895E89409C097FB25
:1007D0003EF490958095709561957F4F8F4F9F4F18
:1007E0009923A9F0F92F96E9BB279395F69587955C
:1007F00077956795B795F111F8CFFAF4BB0F11F41F
:1008000060FF1BC06F5F7F4F8F4F9F4F16C08823C5
:1008100011F096E911C0772321F09EE8872F762FFB
:1008200005C0662371F096E8862F70E060E02AF03C
:100830009A95660F771F881FDAF7880F9695879528
:1008400097F9089597F99F6780E870E060E0089550
:100850009FEF80EC089500240A94161617061806D8
:100860000906089500240A941216130614060506B4
:100870000895092E0394000C11F4882352F0BB0F45
:1008800040F4BF2B11F460FF04C06F5F7F4F8F4FA8
:100890009F4F089557FD9058440F551F59F05F3FE3
:1008A00071F04795880F97FB991F61F09F3F79F092
:1008B00087950895121613061406551FF2CF469514
:1008C000F1DF08C0161617061806991FF1CF869596
:1008D0007105610508940895E894BB27662777277A
:1008E000CB0197F908950E9486040C9439040E9464
:1008F0002B0438F00E94320420F0952311F00C9460
:1009000022040C94280411240C946D040E944A04BF
:1009100070F3959FC1F3950F50E0551F629FF00152
:10092000729FBB27F00DB11D639FAA27F00DB11D6B
:10093000AA1F649F6627B00DA11D661F829F2227F4
:10094000B00DA11D621F739FB00DA11D621F839F7B
:10095000A00D611D221F749F3327A00D611D231F51
:10096000849F600D211D822F762F6A2F11249F579F
:1009700050409AF0F1F088234AF0EE0FFF1FBB1FA2
:10098000661F771F881F91505040A9F79E3F510561
:1009900080F00C9422040C946D045F3FE4F3983EC5
:1009A000D4F3869577956795B795F795E7959F5F0B
:1009B000C1F7FE2B880F911D9695879597F908959D
:1009C000F999FECF92BD81BDF89A992780B5089517
:1009D000262FF999FECF1FBA92BD81BD20BD0FB65B
:1009E000F894FA9AF99A0FBE01960895F894FFCFF9
:0409F00019A0050144
:00000001FF
