:100000000C9434000C9451000C9451000C94510049
:100010000C9451000C9451000C9451000C9451001C
:100020000C9451000C9451000C9451000C94D40089
:100030000C9451000C9451000C9451000C945100FC
:100040000C9451000C9451000C9451000C945100EC
:100050000C9451000C9451000C9451000C945100DC
:100060000C9451000C94510011241FBECFEFD8E026
:10007000DEBFCDBF11E0A0E0B1E0EEE5F5E002C0EB
:1000800005900D92A430B107D9F721E0A4E0B1E0CA
:1000900001C01D92AD34B207E1F70E9464020C94D6
:1000A000AD020C9400000F931F93CF93DF938C014C
:1000B0008091070190910801892B81F0E7E0F1E040
:1000C00021E030E0822FE901A781B0852F5F3F4F0B
:1000D0003796AB2BB9F78A3021F415C0C0E0D0E0D9
:1000E00080E0FE01EE0FFF1FEE0FFF1FEE0FFF1F60
:1000F000EC1BFD0BE95FFE4F11830083738362836A
:10010000558344831682DF91CF911F910F910895FB
:1001100027E0829FC0011124FC01E95FFE4F11829C
:1001200010821382128215821482168280E0089552
:10013000EF92FF921F93CF93DF93C7E0D1E010E0DF
:100140008E81882379F0E881F981309759F00995FB
:100150008E8181508E838C819D81892B19F4812F12
:100160000E9488001F5F27961A3051F7DF91CF91C8
:100170001F91FF90EF900895CF93C0E08C2F0E94C5
:100180008800CF5FCA30D1F781E792E09093890071
:10019000809388008CE08093810082E080936F00E0
:1001A000CF910895789408951F920F920FB60F92F1
:1001B00011242F933F938F939F93AF93BF93EF930C
:1001C000FF93E7E0F1E02DE431E080819181892B1C
:1001D00091F082819381009759F486818F5F8683A5
:1001E00084819581009739F001979383828303C0BE
:1001F0000197938382833796E217F30731F7FF91D4
:10020000EF91BF91AF919F918F913F912F910F905F
:100210000FBE0F901F9018958FEF8AB984B908957B
:100220001092C50083E38093C4001092C00088E15F
:100230008093C10086E08093C2000895EAE7F0E071
:10024000808187608083ACE7B0E08C9180648C9380
:100250008081806880830895ECE7F0E090EF9083E0
:100260009081892B8083EAE7F0E08081806480833D
:10027000808186FDFDCF8091790090E0089580E037
:1002800090E00E942C01809305018FE39CE9019787
:10029000F1F700C00000089561E080E090E00E9466
:1002A0009F026091030181E090E00E949F026091B3
:1002B000020182E090E00E949F026091010183E0D0
:1002C00090E00E949F026091060184E090E00E940D
:1002D0009F026091000185E090E00E949F02609182
:1002E000050186E090E00E949F02089581E090E081
:1002F0000E9497028093030182E090E00E9497029F
:100300008093020183E090E00E94970280930101B4
:1003100084E090E00E9497028093060185E090E0DF
:100320000E9497028093000186E090E00E9497026D
:100330008093050108955B9A08955B9808955A9AF1
:1003400008955A9808955C9A08955C98089581E0FC
:10035000809304018BB1843011F40E94A1010E94AA
:100360009B013CC00E94A3012FEF89E698E1215038
:1003700080409040E1F700C000000E94A5012FEFEF
:1003800089E698E1215080409040E1F700C00000EC
:10039000809106012091020190E00A9730E08217D7
:1003A00093078CF49091060120910201809106013F
:1003B000921B891B809306016091060184E090E006
:1003C0000E949F020BC0809106018A508093060113
:1003D0006091060184E090E00E949F0290910601E6
:1003E00080910201891708F4BDCF1092040108958D
:1003F00081E0809304018BB1883011F40E949D014B
:100400000E949F013CC00E94A3012FEF89E698E162
:10041000215080409040E1F700C000000E94A501FB
:100420002FEF89E698E1215080409040E1F700C02D
:100430000000809106012091010190E00A9630E0D1
:10044000281739078CF420910101909106018091C1
:100450000601820F891B809306016091060184E0EA
:1004600090E00E949F020BC080910601865F8093FE
:1004700006016091060184E090E00E949F02909145
:10048000060180910101981708F4BDCF1092040174
:100490000895909103012091040181E0913009F0C9
:1004A00080E0882381F081E0211180E0882359F0E9
:1004B0009091050180910001891718F40E94F801BC
:1004C00008950E94A701089580E090E00E9497029D
:1004D000813019F00E944C0102C00E9476010E94F6
:1004E0000C010E9410010E941E011092040181E083
:1004F0008093030184E68093000188EC80930501DA
:100500000E94BC0048EE53E068EE73E08FE391E098
:100510000E94530048EB5BE064EF71E089E492E0F5
:100520000E9453000E94D2000E949800FDCFF999CA
:10053000FECF92BD81BDF89A992780B50895262FE8
:10054000F999FECF1FBA92BD81BD20BD0FB6F894B8
:0E055000FA9AF99A0FBE01960895F894FFCF1B
:04055E0019A00501DA
:00000001FF
