S014000041726475696E6F4C696368742E737265634A
S11300000C9434000C9451000C9451000C94510045
S11300100C9451000C9451000C9451000C94510018
S11300200C9451000C9451000C9451000C94D40085
S11300300C9451000C9451000C9451000C945100F8
S11300400C9451000C9451000C9451000C945100E8
S11300500C9451000C9451000C9451000C945100D8
S11300600C9451000C94510011241FBECFEFD8E022
S1130070DEBFCDBF11E0A0E0B1E0E0E2FAE002C0F3
S113008005900D92A630B107D9F721E0A6E0B1E0C2
S113009001C01D92A935B207E1F70E94BC020C947D
S11300A00E050C9400000F931F93CF93DF938C01E4
S11300B08091130190911401892B81F0E3E1F1E027
S11300C021E030E0822FE901A781B0852F5F3F4F07
S11300D03796AB2BB9F78A3021F415C0C0E0D0E0D5
S11300E080E0FE01EE0FFF1FEE0FFF1FEE0FFF1F5C
S11300F0EC1BFD0BED5EFE4F118300837383628363
S1130100558344831682DF91CF911F910F910895F7
S113011027E0829FC0011124FC01ED5EFE4F118295
S113012010821382128215821482168280E008954E
S1130130EF92FF921F93CF93DF93C3E1D1E010E0DE
S11301408E81882379F0E881F981309759F00995F7
S11301508E8181508E838C819D81892B19F4812F0E
S11301600E9488001F5F27961A3051F7DF91CF91C4
S11301701F91FF90EF900895CF93C0E08C2F0E94C1
S11301808800CF5FCA30D1F781E792E0909389006D
S1130190809388008CE08093810082E080936F00DC
S11301A0CF910895789408951F920F920FB60F92ED
S11301B011242F933F938F939F93AF93BF93EF9308
S11301C0FF93E3E1F1E029E531E080819181892B1E
S11301D091F082819381009759F486818F5F8683A1
S11301E084819581009739F001979383828303C0BA
S11301F00197938382833796E217F30731F7FF91D0
S1130200EF91BF91AF919F918F913F912F910F905B
S11302100FBE0F901F9018958FEF8AB984B9089577
S11302201092C50083E38093C4001092C00088E15B
S11302308093C10086E08093C2000895EAE7F0E06D
S1130240808187608083ACE7B0E08C9180648C937C
S11302508081806880830895ECE7F0E090EF9083DC
S11302609081892B8083EAE7F0E080818064808339
S1130270808186FDFDCF8091790090E0089581E032
S113028090E00E942C01EFE3FCE93197F1F700C004
S11302900000BC01990F880B990B0E94FF0320E01A
S11302A030E04FE753E40E945C0320E030E040EA92
S11302B050E40E948B0460930B0170930C018093B3
S11302C00D0190930E0160910B0170910C018091CE
S11302D00D0190910E0120E030E040E05FE30E94C8
S11302E0EF0220E030E048EC52E40E948B0460937B
S11302F00701709308018093090190930A016091AA
S11303000701709108018091090190910A010E94EE
S1130310CE0360930601089561E080E090E00E94BE
S113032000056091040181E090E00E940005609165
S1130330030182E090E00E9400056091020183E0E5
S113034090E00E9400056091120184E090E00E9418
S113035000056091010185E090E00E940005609134
S1130360000186E090E00E9400056091110188E0A0
S113037090E00E94000560910F0189E090E00E94E6
S11303800005089581E090E00E94F8048093040140
S113039082E090E00E94F8048093030183E090E0FF
S11303A00E94F8048093020184E090E00E94F80423
S11303B08093120185E090E00E94F804809301018B
S11303C086E090E00E94F8048093000188E090E0C9
S11303D00E94F8048093110189E090E00E94F804DF
S11303E080930F0108955B9A08955B9808955A9A33
S11303F008955A9808955C9A08955C98089581E048
S1130400809310018BB1843011F40E94F9010E9491
S1130410F3013CC00E94FB012FEF89E698E12150D3
S113042080409040E1F700C000000E94FD012FEFE2
S113043089E698E1215080409040E1F700C0000037
S1130440809112012091030190E00A9730E0821715
S113045093078CF490911201209103018091120171
S1130460921B891B809312016091120184E090E039
S11304700E9400050BC0809112018A5080931201E2
S11304806091120184E090E00E94000590911201B5
S113049080910301891708F4BDCF109210010895CB
S11304A081E0809310018BB1883011F40E94F50132
S11304B00E94F7013CC00E94FB012FEF89E698E1FE
S11304C0215080409040E1F700C000000E94FD01EF
S11304D02FEF89E698E1215080409040E1F700C079
S11304E00000809112012091020190E00A9630E010
S11304F0281739078CF42091020190911201809100
S11305001201820F891B809312016091120184E011
S113051090E00E9400050BC080911201865F8093D9
S113052012016091120184E090E00E940005909114
S1130530120180910201981708F4BDCF10921001A6
S11305400895909104012091100181E0913009F007
S113055080E0882381F081E0211180E0882359F034
S11305609091110180910101891718F40E945002A1
S113057008950E94FF01089580E090E00E94F8042D
S1130580813019F00E948C0102C00E94C2010E94B5
S11305900C010E9410010E941E011092100181E0C2
S11305A08093040180E98093010188EC8093110118
S11305B00E94BC0048EE53E068EE73E08FE391E0E4
S11305C00E94530048EB5BE064EF71E081EA92E043
S11305D00E9453000E94D2000E949800FDCF505800
S11305E0BB27AA270E9407030C9451040E944304CA
S11305F038F00E944A0420F039F49F3F19F426F49D
S11306000C9440040EF4E095E7FB0C943A04E92FB3
S11306100E94620458F3BA176207730784079507A8
S113062020F079F4A6F50C9484040EF4E0950B2ED6
S1130630BA2FA02D0B01B90190010C01CA01A00130
S11306401124FF27591B99F0593F50F4503E68F18B
S11306501A16F040A22F232F342F4427585FF3CFCC
S1130660469537952795A795F0405395C9F77EF49D
S11306701F16BA0B620B730B840BBAF09150A1F0E6
S1130680FF0FBB1F661F771F881FC2F70EC0BA0F6C
S1130690621F731F841F48F4879577956795B795F4
S11306A0F7959E3F08F0B0CF9395880F08F09927EF
S11306B0EE0F9795879508950E9470030C9451044A
S11306C00E944A0458F00E94430440F029F45F3F1A
S11306D029F00C943A0451110C9485040C944004B0
S11306E00E94620468F39923B1F3552391F3951B97
S11306F0550BBB27AA2762177307840738F09F5F3F
S11307005F4F220F331F441FAA1FA9F335D00E2EAB
S11307103AF0E0E832D091505040E695001CCAF718
S11307202BD0FE2F29D0660F771F881FBB1F2617DB
S113073037074807AB07B0E809F0BB0B802DBF01B2
S1130740FF2793585F4F3AF09E3F510578F00C9481
S11307503A040C9485045F3FE4F3983ED4F3869501
S113076077956795B795F7959F5FC9F7880F911DA2
S11307709695879597F90895E1E0660F771F881F8E
S1130780BB1F621773078407BA0720F0621B730B41
S1130790840BBA0BEE1F88F7E09508950E946A0453
S11307A088F09F5798F0B92F9927B751B0F0E1F02E
S11307B0660F771F881F991F1AF0BA95C9F714C0DE
S11307C0B13091F00E948404B1E008950C94840443
S11307D0672F782F8827B85F39F0B93FCCF3869517
S11307E077956795B395D9F73EF490958095709574
S11307F061957F4F8F4F9F4F0895E89409C097FBF1
S11308003EF490958095709561957F4F8F4F9F4FE3
S11308109923A9F0F92F96E9BB279395F695879527
S113082077956795B795F111F8CFFAF4BB0F11F4EA
S113083060FF1BC06F5F7F4F8F4F9F4F16C0882391
S113084011F096E911C0772321F09EE8872F762FC7
S113085005C0662371F096E8862F70E060E02AF008
S11308609A95660F771F881FDAF7880F96958795F4
S113087097F9089597F99F6780E870E060E008951C
S11308809FEF80EC089500240A94161617061806A4
S11308900906089500240A94121613061406050680
S11308A00895092E0394000C11F4882352F0BB0F11
S11308B040F4BF2B11F460FF04C06F5F7F4F8F4F74
S11308C09F4F089557FD9058440F551F59F05F3FAF
S11308D071F04795880F97FB991F61F09F3F79F05E
S11308E087950895121613061406551FF2CF4695E0
S11308F0F1DF08C0161617061806991FF1CF869562
S11309007105610508940895E894BB276627772745
S1130910CB0197F908950E949E040C9451040E94FF
S1130920430438F00E944A0420F0952311F00C94FB
S11309303A040C94400411240C9485040E9462042B
S113094070F3959FC1F3950F50E0551F629FF0011E
S1130950729FBB27F00DB11D639FAA27F00DB11D37
S1130960AA1F649F6627B00DA11D661F829F2227C0
S1130970B00DA11D621F739FB00DA11D621F839F47
S1130980A00D611D221F749F3327A00D611D231F1D
S1130990849F600D211D822F762F6A2F11249F576B
S11309A050409AF0F1F088234AF0EE0FFF1FBB1F6E
S11309B0661F771F881F91505040A9F79E3F51052D
S11309C080F00C943A040C9485045F3FE4F3983E61
S11309D0D4F3869577956795B795F795E7959F5FD7
S11309E0C1F7FE2B880F911D9695879597F9089569
S11309F0F999FECF92BD81BDF89A992780B50895E3
S1130A00262FF999FECF1FBA92BD81BD20BD0FB626
S1130A10F894FA9AF99A0FBE01960895F894FFCFC4
S1090A2046C8A005010018
S9030000FC
